:020000040800F2
:10000000C809002001010008B1350008B932000814
:10001000AD350008A10700084D3D000800000000B4
:10002000000000000000000000000000F53500089E
:100030002517000800000000B33500082537000828
:100040001B0100081B0100081B0100081B01000820
:100050001B0100081B0100081B0100081B01000810
:100060001B0100081B0100081B010008E91600081D
:100070001B0100081B0100081B0100081B010008F0
:100080001B0100081B0100081B0100081B010008E0
:100090000D3D00081B0100081B0100081B010008A2
:1000A0001B0100081B0100081B0100081B010008C0
:1000B0001B010008B53700081B0100081B010008E0
:1000C0001B0100081B0100081B0100081B010008A0
:1000D0001B010008FD3C00081B0100081B01000873
:1000E0001B0100081B0100081B010008DFF80CD0F1
:1000F00000F09AFA0048004759430008C809002058
:100100000648804706480047FEE7FEE7FEE7FEE7B1
:10011000FEE7FEE7FEE7FEE7FEE7FEE7B137000891
:10012000ED000008202A04DB203A21FA02F0002129
:10013000704721FA02F3D040C2F1200291400843F7
:1001400019467047D2B201E000F8012B491EFBD2DC
:1001500070470022F6E710B513460A4604461946D2
:10016000FFF7F0FF204610BD2DE9FE4F804681EAE3
:100170000300C00F0C46009021F0004123F0004521
:10018000B8EB0200A94105D24046214690461C46E4
:100190000B46024623F00040104347D0270DC7F31B
:1001A0000A00C3F30A510290401A019040286BDA0A
:1001B000C3F3130040F4801B0098924620B1002343
:1001C000D2EB030A63EB0B0B01985946C0F14002D6
:1001D000504600F074F906460D4650465946019ABD
:1001E00000F07CF910EB08006141002487EA11520D
:1001F00084EAE7731A4340D0009A62B3019A012A55
:100200004FEA075215DC001B61EB02014FF0004280
:1002100002EA0752CDE90042001C41F58011324646
:100220002B4600F0B3F903B0BDE8F08F40462146FD
:10023000F9E7001B61EB0201001C41F58013001877
:100240005B412018A2F5001747EB030140EAD57087
:10025000B6196D4111E06D084FEA360645EAC075E2
:100260004FEA0752001B61EB0201001C41F58011AF
:1002700049084FEA30000019514132462B4603B07D
:10028000BDE8F04F00F073B9009801224000002350
:10029000D0EB020263EBE073009821464FEAE07472
:1002A000B8EB000061EB0401E9E783F000435BE792
:1002B00081F0004158E72DE9FE4F81EA030404F084
:1002C000004421F0004100944FF0000B23F0004364
:1002D00050EA01045ED052EA03045BD0C3F30A542F
:1002E000C1F30A552C44A4F2F3340194A0FB025448
:1002F000C1F3130141F48011C3F3130343F48013DA
:1003000001FB024400FB034E840A970A44EA81542D
:1003100047EA8357A4FB076802958D0A05FB07850A
:100320004FEA932C04FB0C542705029D4FEA065814
:1003300047EA1637B5EB08056EEB070C870E920EF1
:1003400047EA811742EA8312A7FB0201B6EB0B01D1
:1003500064EB00042B0D43EA0C335E1844EB1C5095
:10036000DA465146E7FB0201C5F313044FEA0B33AB
:1003700043EA14534FEA0432019C43EA0603A4F112
:100380000C040294009CCDE900B400F0FFF803B027
:10039000BDE8F08F00200146F9E7962300221146C0
:1003A00000F0B7B8C1F30A5210B5C1F3130140F21F
:1003B000FF3341F480119A4201DA002010BD40F26F
:1003C00033439A42A2F2334203DC5242FFF7AAFEC1
:1003D00010BD904010BD00F0004230F000400AD047
:1003E000C10D01F56071C0F3160042EA0151C20867
:1003F00040071143704700200146704701F0004359
:1004000030B421F0004150EA010206D00A0DA2F5F5
:100410006072C1F31301002A02DC30BC0020704777
:10042000440F44EAC104C100E01830BC00EBC250E4
:1004300000F066B8002801DBC0F10040002901DBB4
:10044000C1F1004181427047002801DBC0F100404A
:10045000002901DBC1F10041884270472DE9F05FBE
:100460000546002092469B46884606468146402423
:100470001BE02846414647462246FFF753FE5346B7
:100480005A46C01A914110D311461846224600F030
:1004900016F82D1A67EB01084F462246012000216D
:1004A00000F00DF817EB00094E41201EA4F10104E5
:1004B000DFDC484631462A464346BDE8F09F202A05
:1004C00004DB203A00FA02F1002070479140C2F1AB
:1004D000200320FA03F3194390407047202A06DBDB
:1004E000CB17203A41FA02F043EAE07306E041FA02
:1004F00002F3D040C2F120029140084319467047F0
:100500000029A8BF7047401C490008BF20F0010027
:10051000704710B4B0FA80FC00FA0CF050EA010405
:1005200004BF10BC704749B1CCF1200421FA04F497
:1005300011FA0CF118BF012121430843A3EB0C0170
:10054000CB1D4FEA00614FEA102042BF002010BCD3
:10055000704700EBC35010440029A4BF10BC704783
:10056000401C490008BF20F0010010BC704710B5C6
:10057000141E73F1000408DA401C41F100019218C6
:100580005B411A4301D120F0010010BD2DE9F04D6F
:1005900092469B4611B1B1FA81F202E0B0FA80F2C4
:1005A00020329046FFF78BFF04460F4640EA0A00D0
:1005B00041EA0B0153465A46084313D0114653EA09
:1005C000010019D0C8F140025046FFF7ABFD0546C7
:1005D0000E46504659464246FFF771FF084305D084
:1005E000012004E020463946BDE8F08D0020054397
:1005F00046EAE0762C4337430A986305E40AA0EB09
:1006000008000022FD0A44EA47540A3002D50020BF
:100610000146E9E7010510196941DDE908450019BE
:100620006941BDE8F04DA2E7064C074D06E0E068E1
:1006300040F0010394E8070098471034AC42F6D329
:10064000FFF758FD604400088044000870B5044678
:1006500000252068806800F00100F0B12068806803
:1006600020F001002168886001F020FE05460EE0C0
:1006700001F01CFE401B022809D9A06A40F01000BE
:10068000A062E06A40F00100E062012070BD2068D5
:10069000806800F001000028EAD10020F6E770B57C
:1006A00005466C6AA06A00F05000E0B9A06A40F408
:1006B0000070A0622068806800F46020B0F5602FB0
:1006C0000DD1207B58B9A06A20F48070A062A06A86
:1006D00000F4805018B9A06A40F00100A0622046E2
:1006E00001F0D2F803E0206A016B2846884770BD0C
:1006F00070B505466C6AA06A40F04000A062E06AEE
:1007000040F00400E062204601F0C0F870BD70B512
:100710000446656A284601F0B8F870BD38B504464D
:100720000025002000902068806800F0010080BB58
:100730002068806840F001002168886016480068E1
:100740001649B0FBF1F0009002E00098401E0090C6
:1007500000980028F9D101F0A9FD054613E001F049
:10076000A5FD401B02280ED9A06A40F01000A0622F
:10077000E06A40F00100E06200BF002084F824003D
:1007800000BF012038BD2068806800F0010000280B
:10079000E5D00020F6E700004400002040420F00B2
:1007A00000BFFEE710B510480078D0B1002416E075
:1007B0000D48406804EB44010C4A32F8111088429D
:1007C0000BD104EB440002EB4000D0F802100648C5
:1007D0000F308847002004490870601CC4B2002C08
:1007E000E6D0012010BD000018010020000000200C
:1007F00000202FE000EB4001184A02EB81018978CC
:10080000012925D100EB400102EB8101898800EB31
:100810004002124B03EB8202D27891420CDA00EBD9
:1008200040011A4602EB81018988491C00EB400215
:1008300003EB820291800BE0002100EB4002074BAA
:1008400003EB8202917000EB400203EB8202918085
:10085000411CC8B20628CDD3704700000800002014
:100860002DE9F04304460D4617461E46DDF81C9060
:100870004FF0000814B10DB107B116B90120BDE861
:10088000F083601EC4B2681EC5B2781EC7B2701E67
:1008900086B26448806940F0040062498861624819
:1008A000006820F47F20604908600846006840F432
:1008B000382008605C480830006840F4C0505A494D
:1008C000083108605748C06940F000705549C86158
:1008D0000020564908600846006840F001000860A2
:1008E00008E008F101001FFA80F8B8F1640F01DD9B
:1008F0000220C4E74D48001D006800F001000028F8
:10090000EFD04A4800684949086008460068086016
:100910000846006808600846006840F0100008605B
:1009200008460068086008460068086000203F49E3
:100930001C3108600846006840EA89700860084673
:10094000006840EA046008600846006840EA055014
:1009500008600846006840EA0740086008460068EA
:10096000304308603148006820F001002F490860DA
:1009700009E008F101001FFA80F84FF6F070804599
:1009800001DD03207BE72948001D006800F001001D
:100990000028EED12648006840F001002449086094
:1009A00023481C30006820F0010021491C310860F8
:1009B0001F480C30006840F001001D490C310860F0
:1009C0001B48001D00681A49091D086018481430AA
:1009D000006817491431086000201549403108604B
:1009E000002113484430016011481C30006840F079
:1009F00001000F491C3108600D48006800200C49B7
:100A000008600A481430006840F0020007491431B9
:100A10000860022314220021012002F077FD00204B
:100A20002DE700000010024004080140006400406F
:100A30000066004010B5002418E004EB44000D49A6
:100A400001EB8000807878B902F018FE04EB4401D5
:100A5000084A02EB810188688047012004EB4401C9
:100A6000044A02EB81018870601CC4B2022CE4D3FA
:100A7000002010BD08000020F0B5DDE90554324E1D
:100A800006EB0016366806F004061670167836B9BE
:100A90002D4E06EB00163668760D0E6005E02A4EE8
:100AA00006EB00163668F6080E60274E06EB0016B9
:100AB000366806F002061E70234E06EB00167668B6
:100AC00006F00F062E70204E06EB0016B668267054
:100AD0001D4E06EB0016B668360A66701A4E06EB17
:100AE0000016B668360CA670174E06EB0016B668F0
:100AF000360EE670144E06EB0016F6682671124E9E
:100B000006EB0016F668360A66710F4E06EB001605
:100B1000F668360CA6710C4E06EB0016F668360E1B
:100B2000E67130B9094E366846F02006074F3E6040
:100B300009E0012807D1054E361D366846F020062B
:100B4000024F3F1D3E60F0BDB06500400C640040A8
:100B500070B5082003F042FC05462C466448006846
:100B60004008217860F3000121706248B0F803006A
:100B700008B9002006E05F48B0F803003C2190FB74
:100B8000F1F0401C217860F347012170584800685B
:100B90008008617860F3000161705648B0F8090080
:100BA00008B9002006E05348B0F809003C2190FB4A
:100BB000F1F0401C617860F3470161704C480068B7
:100BC000C008A17860F30001A1704A48B0F8150090
:100BD00008B9002006E04748B0F80F003C2190FB20
:100BE000F1F0401CA17860F34701A1704048006813
:100BF0000109E07861F30000E0703E48B0F81B00A6
:100C000008B9002006E03B48B0F81B003C2190FBEF
:100C1000F1F0401CE17860F34701E170344800686E
:100C20004009217960F3000121713248B0F82100B8
:100C300008B9002006E02F48B0F821003C2190FBC5
:100C4000F1F0401C217960F34701217128480068C8
:100C50008009617960F3000161712648B0F82700CE
:100C600008B9002006E02348B0F827003C2190FB9B
:100C7000F1F0401C617960F3470161711C48006824
:100C8000C009A17960F30001A1711A48B0F82700EA
:100C900008B9002006E01748B0F827003C2190FB77
:100CA000F1F0401CA17960F34701A171124800687E
:100CB000C00BE17960F30001E1710E48B0F82D003E
:100CC00008B9002006E00B48B0F82D003C2190FB4D
:100CD000F1F0401CE17960F34701E17108222946F7
:100CE00040F2262002F088FC284603F0E1FA70BDAD
:100CF000080C0140780100200808014070B5082068
:100D000003F06CFB044625461048007828700F4815
:100D1000407868700D488078A8700C48C078E870FA
:100D20000A48007928710948407968710748807934
:100D3000A8710648C079E8710822214640F23B308C
:100D400002F05AFC204603F0B3FA70BD24000020E4
:100D5000F0B505460E46059C3E48006800F08060F0
:100D600008B100210FE03B48006800F0006008B1C6
:100D7000012108E03748006800F0805008B10221E6
:100D800001E0FF20F0BD0027334800EB01100760B1
:100D90001EB9C5F30A056D0502E025F06045ED00BA
:100DA0002D4800EB0110006828432B4F07EB01177B
:100DB0003860294800EB0110006840EA86072648A1
:100DC00000EB01100760244800EB0110006840EAC6
:100DD0004207214800EB0110076003F00F031E4893
:100DE00000EB0110406820F00F071B4800EB0110DA
:100DF0004760194800EB011040681843164F07EB95
:100E000001177860E0790006A77940EA0740677922
:100E100040EA0727207907430F4800EB0110C7601D
:100E2000E0780006A77840EA0740677840EA0720A4
:100E300027783843084F07EB0117B860064800EBE6
:100E40000110006840F00107034800EB0110076043
:100E5000084697E70864004080650040014600208E
:100E600021B1012913D0022933D121E01B4A126894
:100E700002F001021043194A126802F00202104304
:100E8000164A126802F0806240EA126023E0134AB8
:100E9000126802F001021043104A126802F00202C6
:100EA00010430E4A126802F0006240EA526012E0FB
:100EB0000A4A126802F001021043084A126802F05E
:100EC00002021043054A126802F0805240EA926022
:100ED00001E0052000BF00BF70470000086400402B
:100EE00000EB40010A4A12F8111021F0FE0100EB5C
:100EF0004002074B03F8121000EB40011A4612F8AB
:100F0000111021F0010100EB400203F812107047AC
:100F10007801002010B50446082C5FD2DFE804F009
:100F200004101C2834404C580022BC21344801F0E5
:100F3000B7F900224FF40041324801F0B1F95CE00A
:100F40000022BA212E4801F0ABF900224FF40041F3
:100F50002C4801F0A5F950E00022B621284801F004
:100F60009FF900224FF40041264801F099F944E02E
:100F70000022AE21224801F093F900224FF40041F3
:100F8000204801F08DF938E000229E211C4801F034
:100F900087F900224FF400411A4801F081F92CE052
:100FA0000022BE21164801F07BF900224FF40041D7
:100FB000144801F075F920E000227E21104801F06C
:100FC0006FF900224FF400410E4801F069F914E076
:100FD0000022FE210A4801F063F90EE00022FE2102
:100FE000074801F05DF900224FF40041054801F087
:100FF00057F905A002F0ACFE00BF00BF10BD000015
:10100000000C014000080140636C6F736520616C47
:101010006C200A002DE9F14F82B035480088B0F508
:10102000876F02DA0020014611E031490888FFF796
:10103000B4F90190FFF7CFF982462E4A2E4BFFF705
:101040003AF907464FF033322C4BFFF72EF905469D
:10105000FFF7D4F9044626484088B0F5876F02DAD6
:101060000020014611E022494888FFF796F90190D7
:10107000FFF7B1F907461F4A1F4BFFF71CF98246DD
:101080004FF033321D4BFFF710F90546FFF7B6F965
:1010900081461B494846FFF7CDF915D2194920462C
:1010A000FFF7C8F910D21848007820B90122D103FF
:1010B000164801F0F5F816492046FFF7BBF90CD2A7
:1010C00000201149087008E000224FF400410F4849
:1010D00001F0E6F801200C4908700E492046FFF7A0
:1010E000B3F903D2B421029802F0DAFABDE8FE8F18
:1010F000540000208104C58F3177BD3F33135F401A
:101100000000F041000002433600002000080140CA
:101110000000E6420000F0422DE9F14F82B0354870
:10112000C088B0F5876F02DA0020014611E031492E
:10113000C888FFF732F90190FFF74DF982462E4A31
:101140002E4BFFF7B8F807464FF033322C4BFFF722
:10115000ACF80546FFF752F9044626480089B0F579
:10116000876F02DA0020014611E022490889FFF763
:1011700014F90190FFF72FF907461F4A1F4BFFF79D
:101180009AF882464FF033321D4BFFF78EF8054632
:10119000FFF734F981461B494846FFF74BF915D252
:1011A00019492046FFF746F910D21848007820B9AF
:1011B00001222021164801F073F816492046FFF756
:1011C00039F90BD200201149087007E000222021D4
:1011D0000F4801F065F801200C4908700A492046C3
:1011E000FFF732F903D2B421029802F059FABDE8B0
:1011F000FE8F0000540000208104C58F3177BD3F71
:1012000033135F400000F0410000C842330000206B
:10121000000C01400000AA422DE9F84F8346234804
:101220000089B0F5876F02DA0020014611E01F49FE
:101230000889FFF7B2F80090FFF7CDF880461C4A06
:101240001C4BFFF738F806464FF033321A4BFFF7C6
:101250002CF80446FFF7D2F8824618495046FFF7AB
:10126000E9F810D21648007820B90122102115485B
:1012700001F016F814495046FFF7DCF80BD20020B5
:101280000F49087007E0002210210E4801F008F80D
:1012900001200B49087009495046FFF7D5F803D2E1
:1012A000B421584602F0FCF9BDE8F88F5400002044
:1012B0008104C58F3177BD3F33135F400000C842C2
:1012C00032000020000C01400000AA422DE9F84F36
:1012D00083462348C089B0F5876F02DA00200146B3
:1012E00011E01F49C889FFF758F80090FFF773F81D
:1012F00080461C4A1C4BFEF7DEFF06464FF0333299
:101300001A4BFEF7D2FF0446FFF778F882461849D9
:101310005046FFF78FF810D21648007820B9012206
:101320000221154800F0BCFF11495046FFF782F832
:101330000BD200200F49087007E0002202210E485E
:1013400000F0AEFF01200B49087009495046FFF735
:101350007BF803D27821584602F0A2F9BDE8F88F55
:10136000540000208104C58F3177BD3F33135F40A7
:101370000000F0422F000020000C01402DE9F14F49
:1013800082B035484088B0F5876F02DA0020014608
:1013900011E031494888FFF700F80190FFF71BF88A
:1013A00082462E4A2E4BFEF786FF07464FF0333219
:1013B0002C4BFEF77AFF0546FFF720F80446264837
:1013C0008088B0F5876F02DA0020014611E02249DB
:1013D0008888FEF7E2FF0190FEF7FDFF07461F4AEF
:1013E0001F4BFEF768FF82464FF033321D4BFEF76E
:1013F0005CFF0546FFF702F881461B494846FFF7A8
:1014000019F815D219492046FFF714F810D21848D8
:10141000007820B901228021164800F041FF1649CA
:101420002046FFF707F80BD200201149087007E0AB
:10143000002280210F4800F033FF01200C49087082
:101440000E492046FFF700F803D2B421029802F0BB
:1014500027F9BDE8FE8F0000540000208104C58FED
:101460003177BD3F33135F400000F041000002437D
:1014700035000020000C01400000E6420000F04270
:101480002DE9F14F82B035488088B0F5876F02DAD8
:101490000020014611E031498888FEF77EFF019067
:1014A000FEF799FF82462E4A2E4BFEF704FF0746B1
:1014B0004FF033322C4BFEF7F8FE0546FEF79EFF49
:1014C00004462648C088B0F5876F02DA002001463E
:1014D00011E02249C888FEF760FF0190FEF77BFF0C
:1014E00007461F4A1F4BFEF7E6FE82464FF0333297
:1014F0001D4BFEF7DAFE0546FEF780FF81461B49CD
:101500004846FEF797FF15D219492046FEF792FF8D
:1015100010D21848007820B901224021164800F066
:10152000BFFE16492046FEF785FF0BD20020114969
:10153000087007E0002240210F4800F0B1FE0120B2
:101540000C4908700A492046FEF77EFF03D2B421F9
:10155000029802F0A5F8BDE8FE8F000054000020BC
:101560008104C58F3177BD3F33135F400000F041E8
:101570000000C84234000020000C01400000AA42D4
:101580002DE9F84F834623484089B0F5876F02DA8A
:101590000020014611E01F494889FEF7FEFE009039
:1015A000FEF719FF80461C4A1C4BFEF784FE0646D8
:1015B0004FF033321A4BFEF778FE0446FEF71EFF5B
:1015C000824618495046FEF735FF10D2164800787B
:1015D00020B901220821154800F062FE1449504646
:1015E000FEF728FF0BD200200F49087007E0002209
:1015F00008210E4800F054FE01200B4908700949EB
:101600005046FEF721FF03D2B421584602F048F8B5
:10161000BDE8F88F540000208104C58F3177BD3FAD
:1016200033135F400000164331000020000C0140DE
:10163000000002432DE9F84F834623488089B0F526
:10164000876F02DA0020014611E01F498889FEF702
:10165000A4FE0090FEF7BFFE80461C4A1C4BFEF71E
:101660002AFE06464FF033321A4BFEF71EFE0446A2
:10167000FEF7C4FE824618495046FEF7DBFE10D244
:101680001648007820B901220421154800F008FE10
:1016900014495046FEF7CEFE0BD200200F490870C9
:1016A00007E0002204210E4800F0FAFD01200B495A
:1016B000087009495046FEF7C7FE03D2B4215846C8
:1016C00001F0EEFFBDE8F88F540000208104C58FC3
:1016D0003177BD3F33135F400000F04230000020FF
:1016E000000C01400000DC4210B5024800F0F8FA9E
:1016F00010BD00009400002030B590F84050012447
:10170000AC40C56B6C60046863604468102C04D105
:101710000468A2600468E16003E00468A1600468F2
:10172000E26030BD7047704738B5024600230020A4
:10173000009000BF92F82400012801D1022038BD9A
:10174000012082F8240000BF4868072812D21068E0
:10175000406B0C79641E04EB84051F24AC40A0434D
:101760000D796D1E05EB85050C68AC4020431468AF
:10177000606327E048680D2812D21068006B0C796E
:10178000E41F04EB84051F24AC40A0430D79ED1F3A
:1017900005EB85050C68AC4020431468206311E01C
:1017A0001068C06A0C790D3C04EB84051F24AC4022
:1017B000A0430D790D3D05EB85050C68AC40204339
:1017C0001468E06208680A2812D31068C0680C78B0
:1017D0000A3C04EB44050724AC40A0430D780A3DC5
:1017E00005EB45058C68AC4020431468E0600FE0D1
:1017F000106800690C7804EB44050724AC40A04352
:101800000D7805EB45058C68AC40204314682061D9
:101810000868102802D00868112827D1174C1068D2
:10182000A0421ED11068806800F40000F0B9106872
:10183000806840F400001468A0600868102815D182
:101840000F4800680F4CB0FBF4F000EB8000400044
:10185000009002E00098401E009000980028F9D106
:1018600004E0906A40F020009062012300BF002055
:1018700082F8240000BF184661E700000024014000
:101880004400002040420F0070477047704700003E
:101890002DE9F0410446002700250026A84614B98A
:1018A0000120BDE8F081A06810B1207D00B100BF2B
:1018B000A06A30B90020E06284F82400204600F0DD
:1018C00089F82046FEF7C2FE0746A06A00F0100025
:1018D000002873D1002F71D1A06A20F4885040F005
:1018E0000200A062E16960680843217B40EA410090
:1018F0000643A068B0F5807F02D0A068012802D11D
:101900004FF4807000E000200543207D012811D1B4
:10191000207B38B9A069401E4FF4006141EA403095
:10192000054307E0A06A40F02000A062E06A40F0B2
:101930000100E0622068406820F469402843216883
:1019400048602068806821490840304321688860E9
:10195000A068B0F5807F02D0A068012802D14FF4C2
:10196000807000E00020B0F5807F03D1208A401E07
:101970004FEA00582068C06A20F4700040EA08006E
:101980002168C8622068806811490840B04208D1C7
:101990000020E062A06A20F0020040F00100A06296
:1019A00011E0A06A20F0020040F01000A062E06A9E
:1019B00040F00100E062012705E0FFE7A06A40F087
:1019C0001000A062012738466BE70000FDF7E1FF39
:1019D000FE0E1FFF10B586B0044600200290039053
:1019E000049005902C492068884253D100BF2B48B1
:1019F000806940F40070294988610846806900F4D4
:101A00000070019000BF00BF00BF0846806940F031
:101A1000040088610846806900F00400019000BF5E
:101A200000BF00BF0846806940F008008861084692
:101A3000806900F00800019000BF00BFFE20029006
:101A40000320039002A9164800F09AFA01200290A0
:101A50000320039002A9134800F092FA1248134998
:101A60000860002048600021104881608021C1602A
:101A70004900016189004161202181610021C1612A
:101A800000F0FCF908B1FFF74EFE00BF07482062E6
:101A9000446200BF06B010BD0024014000100240A7
:101AA00000080140000C01400800024094000020A2
:101AB0002DE9F04104460D46164600275749206897
:101AC000884203D056492068884205D15348001DFA
:101AD000006800F4702000E0002000287ED100BFE4
:101AE00094F82400012802D10220BDE8F0810120F1
:101AF00084F8240000BF2046FEF710FE0746002FA2
:101B00006DD1A06A40F60161884340F48070A06204
:101B100043492068884209D14048001D006800F40C
:101B2000702008B9012002E0002000E0012078B117
:101B3000A06A20F48010A0622068406800F48060F1
:101B400000B3A06A20F4005040F48050A06219E075
:101B5000A06A40F48010A06230492068884203D017
:101B60002F492068884205D12C48001D006800F4E8
:101B7000806000E0002028B1A06A20F4005040F40A
:101B80008050A062A06A00F4805020B1E06A20F08A
:101B90000600E06201E00020E06200BF002084F85F
:101BA000240000BF1F48216A88621F48216AC8625A
:101BB0001E48216A08636FF00200216808602068EF
:101BC000806840F4807021688860226802F14C01CE
:101BD00033462A46206A00F085F901E01AE014E055
:101BE0002068806800F46020B0F5602F06D120687E
:101BF000806840F4A000216888600CE0206880685C
:101C000040F480102168886005E000BF002084F85F
:101C1000240000E00127384667E700000024014067
:101C2000002801409F0600080F070008F106000881
:101C300070B50446002594F82100022803D0042042
:101C4000A063012548E02068006820F00E002168AC
:101C500008602068006820F00100216808601F49C2
:101C60002068884201D1012026E01C4914312068F7
:101C7000884201D110201FE018492831206888428D
:101C800001D1801518E015493C312068884201D106
:101C9000801411E0114950312068884202D14FF47C
:101CA000803009E00D4964312068884202D14FF448
:101CB000801001E04FF08070084908394860012029
:101CC00084F8210000BF002084F8200000BF606B72
:101CD00010B12046616B8847284670BD080002405D
:101CE00070B50446E06B05682068066894F84010FB
:101CF000042088402840002846D006F00400002830
:101D000042D02068006800F0200028B920680068F0
:101D100020F004002168086057492068884201D1FA
:101D2000042027E0544914312068884201D1402022
:101D300020E0514928312068884201D1001519E07E
:101D40004D493C312068884202D14FF4804011E077
:101D5000494950312068884202D14FF4802009E07F
:101D6000454964312068884202D14FF4800001E087
:101D70004FF08060404908394860E06A00287AD016
:101D80002046E16A884776E094F8401002208840B7
:101D90002840A0B306F0020088B32068006800F075
:101DA000200040B92068006820F00A00216808601F
:101DB000012084F8210030492068884201D10220A6
:101DC00028E02D4914312068884201D1202021E0EB
:101DD000294928312068884201D140151AE0264956
:101DE0003C312068884202D14FF4005012E0224971
:101DF00050312068884203D14FF400300AE017E0E8
:101E00001D4964312068884202D14FF4001001E07E
:101E10004FF0007018490839486000BF002084F86E
:101E2000200000BFA06A30B32046A16A884722E0A4
:101E300094F84010082088402840E0B106F00800DF
:101E4000C8B12068006820F00E002168086094F88E
:101E5000401001208840E16B48600120A06384F8B5
:101E6000210000BF002084F8200000BF206B10B1CB
:101E70002046216B884770BD0800024001460022C1
:101E800009B901207047164B0868C01A1423B0FB2B
:101E9000F3F08000086412480838C863022081F813
:101EA00021000868026843F6F0708243D1E901031B
:101EB0001843CB6818430B6918434B6918438B6967
:101EC0001843CB6918430243086802600020886306
:101ED000012081F82100002081F8200000BFD1E717
:101EE000080002402DE9F04104460D4616461F4603
:101EF0004FF0000800BF94F82000012802D1022012
:101F0000BDE8F081012084F8200000BF94F8210092
:101F100001282CD1022084F821000020A063206831
:101F2000006820F00100216808603B4632462946DF
:101F30002046FFF7E1FBE06A30B12068006840F01E
:101F40000E00216808600BE02068006820F00400A3
:101F5000216808602068006840F00A002168086075
:101F60002068006840F001002168086006E000BFBA
:101F7000002084F8200000BF4FF002084046BFE771
:101F80002DE9F8470346002294466EE14FF0010820
:101F900008FA02F4D1F8008008EA0400A0427DD1DA
:101FA000DFF8DCA2D1F80480A8EB0A09D0453AD0CA
:101FB00014DCB8F1030F50D009DCB8F1000F31D0B8
:101FC000B8F1010F1CD0B8F1020F49D120E0B8F1EF
:101FD000110F18D0B8F1120F42D11EE0B9F5881FC9
:101FE00025D006DCB9F5803F20D0B9F5801F37D168
:101FF0001AE0B9F5001F18D0B9F5041F30D117E069
:10200000D1F80CC02DE0D1F80C8008F1040C28E0C8
:10201000D1F80C8008F1080C23E0D1F80C8008F10D
:102020000C0C1EE000BF00BF00BF00BF00BF00BF20
:10203000D1F80880B8F1000F02D14FF0040C0BE08A
:10204000D1F80880B8F1010F03D14FF0080C1C61E2
:1020500002E04FF0080C5C6103E04FF0000C00E080
:1020600000BF00BFFF2801D8984601E003F1040833
:102070004646FF2802D84FEA820803E0A2F108088A
:102080004FEA88084746D6F800804FF00F0909FA52
:1020900007F928EA09080CFA07F900E088E048EA9D
:1020A0000908C6F80080D1F8048008F08058B8F11B
:1020B000805F7DD100BFDFF8CC81D8F8188048F070
:1020C0000108DFF8C091C9F81880C846D8F8188010
:1020D00008F00108CDF8008000BF00BF4FEAB93812
:1020E0004FEA920958F829504FEA82784FEA187956
:1020F0004FF00F0808FA09F825EA0805DFF888818B
:10210000434502D14FF0000816E0DFF880814345D7
:1021100002D14FF001080FE0DFF87481434502D18E
:102120004FF0020808E0DFF86C81434502D14FF020
:10213000030801E04FF004084FEA82794FEA197969
:1021400008FA09F848EA0505DFF84C814FEA9209D8
:1021500048F82950D1F8048008F48038B8F5803F59
:102160000AD1DFF83881D8F8008048EA0008DFF8A3
:102170002C91C9F8008009E0DFF82081D8F80080B0
:1021800028EA0008DFF81491C9F80080D1F804802B
:1021900008F40038B8F5003F10D1DFF8008108F1ED
:1021A0000408D8F8008048EA0008DFF8F09000E062
:1021B0005AE009F10409C9F800800DE0DFF8DC807D
:1021C00008F10408D8F8008028EA0008DFF8CC906D
:1021D00009F10409C9F80080D1F8048008F48018D6
:1021E000B8F5801F0ED1DFF8B48008F10808D8F8E0
:1021F000008048EA0008DFF8A49009F10809C9F84E
:1022000000800DE0DFF8948008F10808D8F800801D
:1022100028EA0008DFF8849009F10809C9F800806D
:10222000D1F8048008F40018B8F5001F0ED1DFF8CB
:102230006C8008F10C08D8F8008048EA0008DFF844
:102240005C9009F10C09C9F800800DE0DFF84C80C2
:1022500008F10C08D8F8008028EA0008DFF83C9064
:1022600009F10C09C9F80080521CD1F8008028FA45
:1022700002F8B8F1000F7FF489AEBDE8F8870000DE
:10228000000011100010024000080140000C014045
:10229000001001400014014008000140000401400A
:1022A0000AB1016101E00B04036170470148006855
:1022B000704700003800002003480068034909788F
:1022C00008440149086070473800002040000020A1
:1022D00010B50848006840F0100006490860032067
:1022E00000F0A8F8002000F007F800F02BF800201C
:1022F00010BD00000020024070B504460E48007872
:102300004FF47A71B1FBF0F00C490968B1FBF0F5BC
:10231000284600F0A3FC08B1012070BD102C07D2A4
:1023200000222146501E00F047F80548046001E0F5
:102330000120F2E70020F0E74000002044000020E8
:102340003C00002008B500BF1148806940F0010042
:102350000F4988610846806900F00100009000BFC5
:1023600000BF00BF0846C06940F08050C861084601
:10237000C06900F08050009000BF00BF00BF054959
:10238000486820F0E06040F08060486000BF08BD11
:10239000001002400000014001460846002809DB09
:1023A00000F01F0301229A4043099B0003F1E02340
:1023B000C3F8002100BF70472DE9F05F80460D464D
:1023C0001646002701F0D4FC074639462A46334614
:1023D00001F00700C0F1070ABAF1040F02D94FF06B
:1023E000040A01E0C0F1070AD14600F1040ABAF17B
:1023F000070F02D24FF0000A01E0A0F1030AD44611
:102400004FF0010A0AFA09FAAAF1010A0AEA020AD5
:102410000AFA0CFA4FF0010B0BFA0CFBABF1010BB3
:102420000BEA030B4AEA0B042146404601F0A8FCE4
:10243000BDE8F09F00BF00F00702064B19684FF699
:10244000FF031940044B0B4343EA0221014B19607F
:1024500000BF70470CED00E00000FA05F8B5044637
:1024600000260025207800F0010000286BD000270E
:102470004348C06900F0805070B900BF4048C0694F
:1024800040F080503E49C8610846C06900F0805065
:10249000009000BF00BF01273A48006800F4807038
:1024A000B0B93848006840F4807036490860FFF7DA
:1024B000FDFE064606E0FFF7F9FE801B642801D901
:1024C0000320F8BD2F48006800F480700028F2D087
:1024D0002B48006A00F440752DB3A08800F44070CA
:1024E000A84220D02648006A20F4407501202649E1
:1024F0000860002008602248056205F0010090B1E4
:10250000FFF7D4FE064608E0FFF7D0FE801B41F23D
:102510008831884201D90320D3E71948006A00F0C6
:1025200002000028F0D01648006A20F4407061686C
:10253000084313490862012F04D10846C06920F0FE
:102540008050C86100BF207800F00200022807D147
:102550000B48406820F44040A1680843084948609F
:10256000207800F01000102807D10548406820F4BA
:102570008000E1680843024948600020A1E70000AC
:1025800000100240007000404004424270B5044612
:102590000D460CB9012070BD5A48006800F00700D4
:1025A000A8420ED25748006820F00700284355493A
:1025B00008600846006800F00700A84201D001202A
:1025C000E9E7207800F0020002281DD1207800F011
:1025D0000400042805D14C48406840F4E0604A49B2
:1025E0004860207800F00800082805D14648406877
:1025F00040F46050444948604348406820F0F0008F
:10260000A168084340494860207800F0010078B391
:102610006068012806D13C48006800F4003090B999
:102620000120B8E76068022806D13748006800F04A
:10263000007040B90120AEE73348006800F00200A6
:1026400008B90120A7E73048406820F0030061681E
:1026500008432D494860FFF729FE064609E0FFF7C9
:1026600025FE801B41F28831884202D9032092E77F
:1026700007E02548406800F00C006168B0EB810F6E
:10268000EDD12048006800F00700A8420ED91D488F
:10269000006820F0070028431A49086008460068CF
:1026A00000F00700A84201D0012074E7207800F074
:1026B0000400042807D11448406820F4E060E16871
:1026C000084311494860207800F00800082808D124
:1026D0000D48406820F46050216940EAC1000A4971
:1026E000486000F03FF808494968C1F30311074A00
:1026F000515CC8400649086006480068FFF7FCFDC9
:10270000002048E700200240001002404844000832
:10271000440000203C000020014800687047000091
:102720004400002000B5FFF7F7FF04494968C1F3F2
:102730000221034A515CC84000BD00000010024065
:102740005844000800B5FFF7E7FF04494968C1F3A2
:10275000C221034A515CC84000BD00000010024085
:1027600058440008F0B585B00FF26C0C9CE8E010FE
:1027700001A8A0E8E0101CA52D680095002100220A
:10278000002300240020194D696801F00C05F5B103
:10279000042D02D0082D19D101E0154819E001AD32
:1027A000C1F38346AC5D01F4803555B10F4D6D68C2
:1027B000C5F340451DF805200D4D6543B5FBF2F30B
:1027C00002E00C4D04FB05F3184602E000BF084888
:1027D00000BF00BF05B0F0BD0203040506070809ED
:1027E0000A0B0C0D0E0F1010010200000010024029
:1027F00000127A0000093D00F8B504460CB901202A
:10280000F8BD207800F00100002878D0F848406832
:1028100000F00C0004280CD0F548406800F00C00D3
:10282000082811D1F248406800F48030B0F5803FAC
:102830000AD1EF48006800F4003000285FD06068DB
:1028400000285CD10120DBE700BF6068B0F5803F65
:1028500006D1E748006840F48030E549086028E088
:10286000606858B9E248006820F48030E0490860A8
:102870000846006820F4802008601AE06068B0F51F
:10288000A02F0BD1DA48006840F48020D8490860B6
:102890000846006840F4803008600AE0D4480068C8
:1028A00020F48030D24908600846006820F4802077
:1028B000086000BF606888B1FFF7F8FC054606E0D5
:1028C000FFF7F4FC401B642801D9032098E7C848AF
:1028D000006800F400300028F2D010E0FFF7E6FCBA
:1028E000054606E0FFF7E2FC401B642801D90320FF
:1028F00086E7BF48006800F400300028F2D1207855
:1029000000F00200022857D1B948406800F00C00DE
:1029100050B1B748406800F00C00082818D1B448FE
:10292000406800F4803098B9B148006800F00200B7
:1029300020B12069012801D0012061E7AC4800687E
:1029400020F0F800616940EAC100A949086033E05D
:102950002069E8B10120A7490860FFF7A7FC0546F8
:1029600006E0FFF7A3FC401B022801D9032047E73C
:102970009F48006800F002000028F2D09C480068E0
:1029800020F0F800616940EAC1009949086013E04D
:10299000002098490860FFF789FC054606E0FFF72C
:1029A00085FC401B022801D9032029E790480068D4
:1029B00000F002000028F2D1207800F0080008287A
:1029C0002DD1A069B8B101208B490860FFF76EFCDA
:1029D000054606E0FFF76AFC401B022801D90320E8
:1029E0000EE78348406A00F002000028F2D0012080
:1029F00000F0E0FD13E000207F490860FFF756FC7F
:102A0000054606E0FFF752FC401B022801D90320CF
:102A1000F6E67748406A00F002000028F2D12078FC
:102A200000F00400042873D100277148C06900F049
:102A3000805070B900BF6E48C06940F080506C494A
:102A4000C8610846C06900F08050009000BF00BF18
:102A500001276A48006800F48070B0B967480068D0
:102A600040F4807065490860FFF720FC054606E0E9
:102A7000FFF71CFC401B642801D90320C0E65F4817
:102A8000006800F480700028F2D000BFE0680128E0
:102A900006D15748006A40F001005549086227E016
:102AA000E06858B95248006A20F0010050490862B5
:102AB0000846006A20F00400086219E0E068052872
:102AC0000BD14B48006A40F00400494908620846AF
:102AD000006A40F0010008620AE04548006A20F000
:102AE0000100434908620846006A20F004000862B9
:102AF00000BFE068A0B1FFF7D9FB054609E0FFF78A
:102B0000D5FB401B41F28831884202D9032077E689
:102B100022E03748006A00F002000028EFD012E0FF
:102B2000FFF7C4FB054608E0FFF7C0FB401B41F27E
:102B30008831884201D9032062E62D48006A00F0FE
:102B400002000028F0D1012F05D12948C06920F0EA
:102B500080502749C86100BFE069C8B32448406875
:102B600000F00C00082860D0E069022848D100205D
:102B700020490866FFF79AFB054606E0FFF796FB3B
:102B8000401B022801D903203AE61948006800F0EA
:102B900000700028F2D1206AB0F5803F07D11448B8
:102BA000406820F40030A168084311494860D4E926
:102BB000080108430E49496821F4741108430C497F
:102BC000486001200B490866FFF770FB054607E0E7
:102BD0003DE0FFF76BFB401B022801D903200FE605
:102BE0000348006800F000700028F2D02FE00000D9
:102BF0000010024000004242800442420070004047
:102C0000002014490866FFF751FB054606E0FFF770
:102C10004DFB401B022801D90320F1E50E48006856
:102C200000F000700028F2D111E0E069012800D125
:102C3000E6E50948466806F48031206A814204D1FD
:102C400006F47011606A814201D00120D8E50020AD
:102C5000D6E50000000042420010024070B5044674
:102C60002546681EB0F1807F01D301200FE0681E69
:102C70004FF0E02148610F214FF0FF3001F080F864
:102C800000204FF0E021886107200861002070BD1E
:102C90007047704710B504460CB9012010BD94F878
:102CA0003D0028B9002084F83C00204600F026F8BA
:102CB000022084F83D00211D206800F099FD0120CC
:102CC00084F8460000BF84F83E0001213F200155F2
:102CD000402001554120015500BF00BF012084F86C
:102CE000420043200155442001554520015500BFB5
:102CF000012084F83D000020D0E7000038B50446EC
:102D00000D492068884215D100BF0C48C06940F0C9
:102D100002000A49C8610846C06900F0020000903C
:102D200000BF00BF032201211D20FFF745FB1D202E
:102D3000FFF732FB38BD00000004004000100240E5
:102D4000014691F83D00012801D001207047022082
:102D500081F83D000868C06840F001000B68D86049
:102D6000124B086898420BD00868B0F1804F07D02A
:102D70000F4B0868984203D00E4B086898420CD15C
:102D80000868806800F00702062A0CD0086800680E
:102D900040F001000B68186005E00868006840F02A
:102DA00001000B6818600020D0E70000002C0140F3
:102DB0000004004000080040704710B50446206839
:102DC0000069C0F34000D8B12068C068C0F340007B
:102DD000B0B16FF0020021680861012020772068FF
:102DE000806900F0030018B12046FFF7E5FF05E019
:102DF000204600F0ADF8204600F0ABF80020207728
:102E000020680069C0F38000D8B12068C068C0F3B2
:102E10008000B0B16FF004002168086102202077C3
:102E20002068806900F4407018B12046FFF7C4FFA5
:102E300005E0204600F08CF8204600F08AF80020DB
:102E4000207720680069C0F3C000D8B12068C0684E
:102E5000C0F3C000B0B16FF0080021680861042021
:102E600020772068C06900F0030018B12046FFF702
:102E7000A3FF05E0204600F06BF8204600F069F85B
:102E80000020207720680069C0F30010D8B12068C6
:102E9000C068C0F30010B0B16FF010002168086185
:102EA000082020772068C06900F4407018B12046DF
:102EB000FFF782FF05E0204600F04AF8204600F0C8
:102EC00048F8002020772068006900F0010058B120
:102ED0002068C06800F0010030B16FF00100216887
:102EE0000861204600F036F820680069C0F3C01081
:102EF00058B12068C068C0F3C01030B16FF08000D6
:102F0000216808612046FFF7C3FE20680069C0F30E
:102F1000801058B12068C068C0F3801030B16FF0E5
:102F2000400021680861204600F028F82068006908
:102F3000C0F3401058B12068C068C0F3401030B1F1
:102F40006FF02000216808612046FFF7A2FE10BD47
:102F50007047704710B504460648844208D10648B9
:102F60000068401C04490860FDF742FC00F07AFC50
:102F700010BD000030010020200000207047704785
:102F80002DE9F0470446206805682068C668206877
:102F900047694FF00008C14605F00F08B8F1000F6F
:102FA0000AD105F0200038B106F0200020B12046FB
:102FB00000F070FDBDE8F087B8F1000F71D007F0A8
:102FC000010018B906F4907000286AD005F00100DD
:102FD00030B106F4807018B1E06B40F00100E0639E
:102FE00005F0040030B107F0010018B1E06B40F0CB
:102FF0000200E06305F0020030B107F0010018B1F3
:10300000E06B40F00400E06305F0080048B106F012
:10301000200010B907F0010018B1E06B40F0080083
:10302000E063E06B68B305F0200028B106F02000F3
:1030300010B1204600F02EFD20684069C0F38019D1
:10304000E06B00F0080010B9B9F1000F22D0204663
:1030500000F000FD2068406900F04000B0B1206839
:10306000406920F0400021684861606B50B1184809
:10307000616B4863606BFEF7DBFD10B1606B416B09
:1030800088470CE02046FFF77AFF08E02046FFF76C
:1030900076FF04E02046FFF772FF0020E06389E737
:1030A000FFE705F0800030B106F0800018B120463F
:1030B00000F0BEFD7EE705F0400030B106F04000B4
:1030C00018B1204600F0D6FC74E700BF72E700009C
:1030D000413A000810B504460CB9012010BDA069A2
:1030E00000B100E000BF94F8390028B9002084F84E
:1030F0003800204600F028F8242084F839002068A1
:10310000C06820F400502168C860204600F012FD1D
:103110002068006920F490402168086120684069B7
:1031200020F02A00216848612068C06840F40050FF
:103130002168C8600020E063202084F8390084F80A
:103140003A000020CAE7000010B586B0044600200F
:1031500002900390049005901E492068884236D161
:1031600000BF1D48806940F480401B4988610846C3
:10317000806900F48040019000BF00BF00BF084696
:10318000806940F0040088610846806900F004000E
:10319000019000BF00BF4815029002200390032059
:1031A000059002A90D48FEF7EBFE4FF480600290F7
:1031B00000200390049002A90848FEF7E1FE0022D7
:1031C00011462520FFF7F8F82520FFF7E5F806B0AF
:1031D00010BD00000038014000100240000801400E
:1031E00070472DE9F84F04460E46174699464FF0B2
:1031F000000A94F8390020285AD106B117B90120E5
:10320000BDE8F88F00BF94F83800012801D10220F2
:10321000F6E7012084F8380000BF0020E063212099
:1032200084F83900FFF742F88246A784E784A06853
:10323000B0F5805F04D1206910B90025B04602E0E6
:1032400035464FF0000800BF002084F8380000BF6A
:103250001BE05346002280212046CDF8009000F06C
:1032600017FD08B10320CBE745B9B8F80000C0F35B
:1032700008002168486008F1020803E02878216806
:1032800048606D1CE08C401EE084E08C0028E0D19A
:103290005346002240212046CDF8009000F0F8FC73
:1032A00008B10320ACE7202084F839000020A7E70C
:1032B0000220A5E77047000002E002A000F048FDF0
:1032C000FBE70000486172644661756C745F486199
:1032D0006E646C6572210D0A200000000EB500209E
:1032E00000900190029035483549086081153448B6
:1032F000816001210173002101754FF46021C161DA
:1033000000202F49486008212D480161FEF7C0FACE
:1033100008B1FEF708FA0120009001900020029009
:1033200069462748FEF700FA08B1FEF7FCF90220CB
:103330000090019069462248FEF7F6F908B1FEF7C1
:10334000F2F903200090019069461D48FEF7ECF960
:1033500008B1FEF7E8F9042000900190694618488A
:10336000FEF7E2F908B1FEF7DEF9052000900190C2
:1033700069461348FEF7D8F908B1FEF7D4F90620DC
:103380000090019069460E48FEF7CEF908B1FEF7AD
:10339000CAF907200090019069460948FEF7C4F970
:1033A00008B1FEF7C0F90820009001906946044872
:1033B000FEF7BAF908B1FEF7B6F90EBD00240140D8
:1033C0006400002008B500BF0A48406940F00100D1
:1033D000084948610846406900F00100009000BFBC
:1033E00000BF002211460B20FEF7E6FF0B20FEF780
:1033F000D3FF08BD0010024000B585B00020019049
:1034000002900390049000BF2F48806940F0200094
:103410002D4988610846806900F02000009000BFB7
:1034200000BF00BF0846806940F00400886108467C
:10343000806900F00400009000BF00BF00BF084694
:10344000806940F0080088610846806900F0080043
:10345000009000BF00BF00BF0846806940F0010037
:1034600088610846806900F00100009000BF00BF3D
:103470000022FE211548FEF713FF00224FF4004101
:103480001348FEF70DFFFE2001900120029000205E
:1034900003900220049001A90C48FEF771FD4FF43F
:1034A000014001900120029000200390022004902E
:1034B00001A90748FEF764FD00224FF4807104481B
:1034C000FEF7EEFE05B000BD00100240000C01400A
:1034D0000008014010B50B480B4908604FF4E1307B
:1034E0004860002108488160C16001610C21416190
:1034F00000218161C161FFF7EDFD08B1FEF713F90D
:1035000010BD000000380140D80000202DE9F04136
:103510000746884614461D46284600F033F8C5F194
:10352000040007FA00F60F20284100EA08000643CD
:1035300006F00F06E21704EBD2625211920002F17C
:10354000E022D2F800212146E31704EBD3635B119C
:10355000A4EB431C012303FA0CF31A432046E317A0
:1035600004EBD3635B119B0003F1E023C3F800215C
:103570000348005D40EA061001490855BDE8F081A6
:1035800000E400E00146072323EA01021202054B92
:1035900018684FF6FF031840034B18431043014BC4
:1035A000186070470CED00E00000FA0500BFFEE770
:1035B0007047704708B508490968C9084FF47A721E
:1035C000B1FBF2F14143009100BF00BF00994A1ED8
:1035D00000920029F9D108BD4400002070B50446CE
:1035E00025462878024908700878FDF779FC70BDF7
:1035F0002D000020704700002DE9F84306460C46D8
:1036000015462B460022114630460094FDF7A0FBDC
:1036100007460AE03846FDF721FC072800D005E000
:103620000CA000F095FBBDE8F883F3E700BF08208D
:1036300000F0D4FE804642460821204600F060FE9D
:10364000414609A000F084FB404600F031FE00BF77
:10365000E9E7000054785374617475735F466169DB
:103660006C6564210D0A200043414E53656E642D44
:103670002D2D3E3A25730D0A0000000070B508207C
:1036800000F0ACFE044625460120287008222146A1
:103690004FF40470FFF7B0FF204600F009FE70BD44
:1036A00070B504460D4604EB4400174901EB400099
:1036B000407940BB04EB440011F8100000F0010019
:1036C00008BB04EB440001EB4000427921460FA007
:1036D00000F03EFB012004EB44010B4A02EB4101E8
:1036E000487104EB4400114601EB4000A0F8015082
:1036F00004EB440011F8100020F00100401C04EB22
:10370000440102F8110070BD7801002054696D5F1A
:10371000436E745B25645D2E666C61673A25640AAE
:103720000000000010B5FEF7C7FD10BD00B593B056
:10373000282109A8FCF70DFD142104A8FCF709FDB8
:103740000020009001900290039001200990000455
:103750000A9000200B9001200D9002201090C103D0
:1037600011914FF4E011129109A8FFF745F808B143
:10377000FDF7D9FF0F20049002200590002006904D
:103780004FF48060079000200890022104A8FEF703
:10379000FDFE08B1FDF7C7FF0220009080030290F4
:1037A0006846FEF75BFE08B1FDF7BDFF13B000BD34
:1037B0007047000010B50248FFF7FFFA10BD000087
:1037C0003001002070B505460C46074807490860DF
:1037D0000846446000218160C5600161FFF75AFA24
:1037E0000248FFF7ADFA70BD000400403001002030
:1037F00010B50268184B984208D0B0F1804F05D040
:10380000164B984202D0164B984203D122F0700218
:103810004B681A43104B984208D0B0F1804F05D046
:103820000E4B984202D00E4B984203D122F44072C4
:10383000CB681A4322F080034C6943EA0402026019
:103840008B68C3620B688362034B984201D10B699A
:1038500003630123436110BD002C014000040040BC
:1038600000080040002049E000EB4001254A02EB3F
:103870004101497901293FD100EB400102EB4101AF
:10388000B1F803100A2291FBF2F100EB40021D4B4C
:1038900003EB4202B2F8012091420EDA00EB400144
:1038A0001A4602EB4101B1F80310491C00EB40023B
:1038B00003EB4202A2F803101EE0002100EB4002DD
:1038C000104B03EB4202A2F8031000EB400203EBA3
:1038D0004202517100EB40011A4612F81110012208
:1038E00002EB510100EB400213F8122061F3470292
:1038F00000EB400103F81120411CC8B20828B3D3E3
:10390000704700007801002008480949086009480C
:103910004860094888600948C86009480861094842
:103920004861094888610948C8617047CD1200089C
:10393000A80100203516000881150008191200089A
:1039400019110008811400087D13000815100008E3
:1039500010B5044600F098FB2E480078FF2832D1BD
:10396000082C2BD2DFE804F00405060708090A0B2F
:1039700000BF00BF00BF00BF00BF00BF00BF2648A0
:10398000264A127850F822102448007888472348A5
:103990000078FDF7BFFA2148007800EB400020498D
:1039A00011F81000400840B11C480078FDF798FA63
:1039B0001A480078401C1949087003E0FF20FDF701
:1039C000A9FA00BF25E013480078002821DD11493D
:1039D0000978491EC8B2FDF79DFA0E480078401ECE
:1039E00000EB40000E4911F81000400858B9094A90
:1039F0001278521ED0B2074A1278521E064B53F864
:103A00002210884705E0FF20FDF784FA05A000F0AA
:103A10009FF910BD2D000020A80100202C000020DF
:103A200078010020636C6F73652063616E5F63745F
:103A3000726C2E6374726C5F6E756D200A000000EC
:103A400070B505466C6A0020E085E0842046FFF7EB
:103A500096FA70BD0168C96821F490710268D1605E
:103A60000168496921F0010102685161202180F853
:103A70003A10704710B504462068C06820F0400036
:103A80002168C860202084F839002046FFF712FC26
:103A9000002010BD70B5044694F83A00222847D1A2
:103AA000A068B0F5805F0CD1206950B90025A66AE6
:103AB00020684068C0F308003080A06A801CA062C3
:103AC00015E0A56A0026A068B0F5805F03D0A06865
:103AD00028B9206918B920684068287004E0206877
:103AE000406800F07F002870A06A401CA062E08D52
:103AF000401E80B2E085C8B92068C06820F0200070
:103B00002168C8602068C06820F480702168C8609F
:103B10002068406920F0010021684861202084F875
:103B20003A002046FFF75CFB002070BD0020FCE758
:103B30000220FAE770B504462168096921F4405172
:103B4000E2681143226811612269A1681143626928
:103B500041EA02052168C96841F20C629143294398
:103B60002268D1602168496921F44071A26911433A
:103B7000226851612D4A2168914202D1FEF7E2FD8F
:103B800001E0FEF7CFFD00EBC00101EB0011626820
:103B90009200B1FBF2F100EBC00202EB001263688D
:103BA0009B00B2FBF3F26423B2FBF3F202EBC2031D
:103BB00003EB0212A1EB8201322202EB011164221B
:103BC000B1FBF2F101F0F00100EBC00202EB0012D8
:103BD00063689B00B2FBF3F26423B2FBF3F201EBE8
:103BE000021200EBC00101EB001163689B00B1FB06
:103BF000F3F100EBC00303EB00136668B600B3FB00
:103C0000F6F36426B3FBF6F303EBC30606EB0313EC
:103C1000A1EB8301322303EB01116423B1FBF3F128
:103C200001F00F0111442268916070BD003801401D
:103C3000014691F83900212828D18868B0F5805FC5
:103C40000BD1086948B90A6A1088C0F308000B68EC
:103C50005860086A801C086205E00B6A581C0862FC
:103C600018780B685860C88C401E80B2C88458B958
:103C70000868C06820F080000B68D8600868C068D9
:103C800040F040000B68D860002070470220FCE73D
:103C90002DE9F04104460D4617469846069E21E060
:103CA000701CF8B12EB1FEF701FBA0EB0800B0428A
:103CB00018D92068C06820F4D0702168C8602068D6
:103CC000406920F0010021684861202084F8390013
:103CD00084F83A0000BF002084F8380000BF0320B9
:103CE000BDE8F081206800682840A84201D1012089
:103CF00000E00020B842D3D00020F1E710B5024820
:103D0000FFF73EF910BD0000D80000201CB50120CF
:103D10000949087001F10F00411E831EC21ECDE942
:103D200000100A390020FCF7A7FE0348416803A0F1
:103D300000F00EF81CBD0000180100205278204948
:103D400044A3BA30782578200D0A000000BFFEE7B2
:103D50000FB4054B10B503A9044A029800F034F8DB
:103D600010BC5DF814FB00009542000848000020DC
:103D700002480068C0F30220704700000CED00E02C
:103D800010B5002804DB0A07130E054A135406E099
:103D90000A07140E034A00F00F031B1FD45410BD72
:103DA00000E400E018ED00E002E008C8121F08C1BE
:103DB000002AFAD170477047002001E001C1121FAC
:103DC000002AFBD1704700002DE9FF4F8DB09B46C4
:103DD0000F460446002606E025280BD05A460F99C8
:103DE0009047641C761C20780028F5D111B030462D
:103DF000BDE8F08F0025A8460122984900E0054360
:103E000014F8013F203B02FA03F00842F7D1207872
:103E10002E2817D114F8010F45F004052A280ED0DA
:103E20006FF02F022078A0F1300109290AD808EBA1
:103E3000880102EB410100EB0108641CF2E757F82E
:103E4000048B641C20786C280DD004DC4C2812D024
:103E50006A2811D104E074280DD07A280CD10AE028
:103E600045F4001507E0617845F48015814202D1E0
:103E7000641C05F58015641C2278692A45D008DC8D
:103E8000002AB3D0582A69D0632A10D0642A08D1F6
:103E90003BE0702A67D0732A13D0752A5CD0782A49
:103EA0005CD010465A460F999047761CD3E017F81D
:103EB000040B8DF8000000208DF80100E946012078
:103EC00003E057F8049B4FF0FF3069074FF00005FF
:103ED00001D40AE06D1C45450DDA8542FADB19F87C
:103EE00005100029F6D106E06D1C8542FCDB19F8AF
:103EF00005100029F8D12E4404E019F8010B5A46A8
:103F00000F9990476D1EF8D2A5E00A200021CDE957
:103F10000801C5F3025002280DD001CFC117031EBE
:103F200071F100030DDA4FF0000CD0EB0C006CEBDC
:103F300001012D2308E0FF1D27F00707F7E8020124
:103F4000EDE72B0504D52B238DF8283001233BE02A
:103F5000EB0739D02023F7E70A2000E010200021EA
:103F6000CDE9080107E01020002145F00405CDE966
:103F700008014FF00808C5F3025002280FD001CF06
:103F800000214FF0000A2B071FD5702A0DD0DDE964
:103F900008C38CF0100C5CEA030C0CD015E0FF1D7C
:103FA00027F00707F7E80201EBE740228DF8282009
:103FB0004FF0010A0BE050EA010306D030238DF8E0
:103FC00028308DF8292002239A46582A04D024A2AA
:103FD0000DF120090B9209E026A2F9E7DDE908239B
:103FE000FCF73CFA0B9B9B5C09F8013D50EA01028F
:103FF000F4D1ADEB090020300890680701D44FF0F0
:1040000001080899884502DDA8EB010000E00020C6
:104010008046002506E00AA85A46405D0F99904761
:104020006D1C761C5545F6DB04E030205A460F998E
:104030009047761CB8F10001A8F10108F5DC05E015
:1040400019F8010B5A460F999047761C0899481E9B
:1040500008900029F4DC641CC5E600000928010072
:1040600030313233343536373839616263646566EE
:1040700000000000303132333435363738394142B0
:1040800043444546000000002DE9F0477C48C089C4
:10409000B0F5876F02DA0020014611E07849C8893F
:1040A000FCF77BF98246FCF796F98046754A764B19
:1040B000FCF701F906464FF03332744BFCF7F5F884
:1040C0000446FCF76FF9724908706D488089B0F5B5
:1040D000876F02DA0020014611E069498889FCF700
:1040E0005CF98246FCF777F98046664A664BFCF736
:1040F000E2F806464FF03332644BFCF7D6F804463C
:10410000FCF750F9624948705D484089B0F5876F07
:1041100002DA0020014611E059494889FCF73DF9CF
:104120008246FCF758F90646564A574BFCF7C3F847
:1041300080464FF03332554BFCF7B7F80446FCF796
:1041400031F9534988704E480089B0F5876F02DA1B
:104150000020014611E04A490889FCF71EF9824611
:10416000FCF739F98046474A474BFCF7A4F8064666
:104170004FF03332454BFCF798F80446FCF712F940
:104180004349C8703E48C088B0F5876F02DA002006
:10419000014611E03A49C888FCF7FFF88246FCF76F
:1041A0001AF98046374A384BFCF785F806464FF037
:1041B0003332364BFCF779F80446FCF7F3F8344910
:1041C00008712F488088B0F5876F02DA0020014619
:1041D00011E02B498888FCF7E0F88246FCF7FBF8F1
:1041E0000646284A284BFCF766F880464FF03332E3
:1041F000264BFCF75AF80446FCF7D4F824494871DA
:104200001F484088B0F5876F02DA0020014611E0B0
:104210001B494888FCF7C1F88246FCF7DCF80646E3
:10422000184A194BFCF747F880464FF03332174BCA
:10423000FCF73BF80446FCF7B5F8154988711048BF
:104240000088B0F5876F02DA0020014611E00C49C2
:104250000888FCF7A2F88246FCF7BDF80646094A32
:10426000094BFCF728F880464FF03332074BFCF738
:104270001CF80446FCF796F80549C871BDE8F087BC
:10428000540000208104C58F3177BD3F33135F4058
:104290002400002013B50C464FF6FF730122694637
:1042A0000248FEF79EFF00981CBD0000D8000020C9
:1042B00010B5002821D0114B0022001F196803E01F
:1042C000814203D80A4649680029F9D152B11368DE
:1042D000841A9C4204D1006818441060104602E021
:1042E000506000E0186039B102680B1A934203D1A4
:1042F0000B681A4402604968416010BD4C00002000
:10430000F0B504460D4600201FE0265C3109265C0E
:1043100006F00F03092904DD01F1370602F81060E9
:1043200003E001F1300602F81060092B06DD03F10D
:104330003706F7B24600761C975505E003F13006C4
:10434000F7B24600761C9755401CA842DDD30026E4
:1043500002F81060F0BD000008B5FDF7B9FF1A487B
:10436000406840F0007018494860FFF7DFF9FFF738
:1043700043F8FFF727F8FFF7ADF8FEF7AFFFFFF7B9
:10438000C3FA082211491248FDF792FB00200423CA
:104390000922082100900120FCF762FA41F61F4132
:1043A00040F2E730FFF70EFA00200A4908700A4988
:1043B000087007E007480078FFF7CAFAFCF73AFBF5
:1043C000FCF7F0F9F6E7000000000140540000207F
:1043D000640000202C0000202D000020F0B50B30E0
:1043E000154D20F007010024144A0FE003688B42AA
:1043F0000BD38B4205D95E1A43184768C3E900679F
:1044000000E04368136002C004E0021D1068002849
:10441000ECD12046002802D1286808B10020F0BD68
:10442000064A07481060074A121A22F00702C0E93C
:10443000002401202860D7E7500000204C00002015
:10444000CC010020C8050020000000000000000092
:10445000010203040607080900000000010203042A
:10446000804400080000002054000000A83D00081F
:10447000D44400085400002074090000B83D00082E
:104480001002DD35000800002602000300000000D5
:10449000510B00083B03000300000000FD0C000866
:1044A000000000000000000000000000000000000C
:1044B00000000000000000000000000010000000EC
:1044C000010000000024F4000000000000000000D3
:0444D00000000000E8
:04000005080000ED02
:00000001FF
